:020000040800F2
:100000000000022059030108D5990008D79900087B
:10001000DD990008DF990008E19900080000000060
:10002000000000000000000000000000217900082E
:10003000E399000800000000C1790008257A000853
:10004000A9030108A9030108A9030108A9030108DC
:10005000E5990008A9030108A9030108A9030108FB
:10006000A9030108ED990008F7990008A903010800
:10007000019A0008119A0008A9030108A9030108C0
:10008000A9030108A9030108A9030108A90301089C
:10009000219A0008319A0008A9030108419A000832
:1000A000A9030108A9030108A9030108A90301087C
:1000B000A9030108A9030108A9030108A90301086C
:1000C000A90301084D9A00085D9A00086D9A00087E
:1000D0007D9A00088D9A0008A90301089D9A0008DE
:1000E000A9030108A9030108A9030108A90301083C
:1000F000A9030108AD9A0008A9030108C59A0008E0
:10010000A9030108A9030108A9030108A90301081B
:10011000A9030108A9030108A9030108A90301080B
:10012000D59A0008A9030108E59A0008F59A000885
:10013000A9030108A9030108A9030108A9030108EB
:10014000059B0008159B0008A9030108259B0008D2
:10015000359B0008459B0008559B0008659B0008DF
:10016000759B0008859B0008A9030108A9030108E5
:10017000A9030108A9030108A90301080000000060
:08018000A9030108A90301080D
:1001900053B94AB9002908BF00281CBF4FF0FF31EE
:1001A0004FF0FF3000F00CB8ADF1080C6DE904CE53
:1001B00011F032FEDDF804E0DDE9022304B07047FF
:1001C000704700BF10F8012B11F8013B012A28BF2E
:1001D0009A42F7D0D01A70470348044B834202D0AA
:1001E000034B03B118477047A4030020A403002069
:1001F000000000000548064B1B1AD90F01EBA301B4
:10020000491002D0034B03B118477047A4030020E4
:10021000A40300200000000010B5064C237843B969
:10022000FFF7DAFF044B13B10448AFF3008001235A
:10023000237010BDA8030020000000003421010835
:1002400008B5054B1BB105490548AFF30080BDE873
:100250000840FFF7CFBF00BF00000000AC03002044
:100260003421010802440346934200D1704703F849
:10027000011BF9E770B50D4D0D4C641BA410002651
:10028000A64209D10B4D0C4C11F054FF641BA41075
:100290000026A64205D170BD55F8043B98470136AB
:1002A000EEE755F8043B98470136F2E7283A010893
:1002B000283A0108283A01082C3A0108704770478B
:1002C00070B50F4E0C463168054611B900F0A6F81E
:1002D00030602146284600F0A1F8431C03D14FF0BE
:1002E000FF34204670BDC41C24F00304A042F8D0A3
:1002F000211A284600F092F80130F2D1EFE700BF52
:10030000040500202DE9F843CD1C25F00305083530
:100310000C2D38BF0C25002D064601DBA94204D95F
:100320000C2333600020BDE8F883DFF8D48000F0B0
:1003300069F8D8F800301C4644BB29463046FFF720
:10034000BFFF431C044658D1D8F800402746002F71
:1003500043D1002C4BD023683946304604EB0309C7
:1003600000F05CF8814542D121686D1A294630467B
:10037000FFF7A6FF01303AD023682B442360D8F85A
:1003800000305A6862BBC8F800700FE02268521B48
:1003900020D40B2A17D96119A342256018BF5960D0
:1003A000636808BFC8F8001062514B60304600F027
:1003B0002FF804F10B00231D20F00700C21A1CBF08
:1003C0001B1AA350AFE76268A3420CBFC8F8002015
:1003D0005A60EBE723466468AEE73C467F68B6E7C1
:1003E0001A465B68A342FBD100235360DEE70C236F
:1003F0003360304600F00CF894E70560D6E700BFA4
:10040000080500200148FFF759BF00BF0005002084
:100410000148FFF754BF00BF0005002038B5064D66
:100420000023044608462B6000F008F8431C02D164
:100430002B6803B1236038BDFC040020044A054941
:100440001368002B08BF0B4618441060184670470D
:100450000C050020688A002008B50B4B1A6842F48E
:1004600000721A601A6842F480621A601A6842F4D4
:1004700080721A60032000F00DFE0F2009F058FA78
:1004800009F02CFA002008BD003C0240034A116824
:10049000034B1B780B441360704700BF100500200E
:1004A00050000020014B1868704700BF1005002065
:1004B00038B50446FFF7F6FF0546B4F1FF3F02D01A
:1004C000044B1B781C44FFF7EDFF401BA042FAD3FE
:1004D00038BD00BF500000204A4B5A6822F4403219
:1004E0005A605A6841680A435A600268536823F4A4
:1004F0008073536002685368016943EA01235360C3
:100500000268536823F0407353600268536881683F
:100510000B4353600268936823F40063936002689E
:100520009368C1680B439360826A374B9A4257D0F5
:100530000268936823F07063936002689368816A2D
:100540000B4393600268936823F040539360026802
:100550009368C16A0B4393600268936823F00203B7
:10056000936002689368017E43EA4103936090F8C8
:100570002030002B3FD00268536843F4006353607F
:100580000268536823F46043536001684B68426A11
:10059000013A43EA42334B600268D36A23F47003A2
:1005A000D3620168CB6AC269013A43EA0253CB6263
:1005B0000268936823F4007393600268936890F86C
:1005C000301043EA412393600268936823F4806308
:1005D000936002689368416943EA8123936070479E
:1005E0000268936823F0706393600268936823F055
:1005F00040539360B0E70268536823F4006353608C
:10060000CAE700BF002301400100000F38B310B556
:100610000446036C43B1236C13F0100F0BD0012080
:10062000002384F83C3010BD08F034FB00236364E1
:1006300084F83C30EFE7236C23F4885323F0020363
:1006400043F0020323642046FFF746FF0020606466
:10065000236C23F0030343F001032364E0E701204C
:100660007047000030B482B00022019290F83C2024
:10067000012A00F0B6800346012280F83C200A6877
:10068000092A40D90468E06892B202EB42021E3A9D
:100690004FF0070C0CFA02F220EA0202E2601C683A
:1006A000E0680A8802EB42021E3A8D6805FA02F2FF
:1006B0000243E2604A68062A3CD81C68606B02EB81
:1006C0008202053A4FF01F0C0CFA02F220EA0202F5
:1006D00062631C68606B4A6802EB8202053AB1F8FB
:1006E00000C00CFA02F20243626318683E4A90426C
:1006F00050D018683C4A904255D0002083F83C0006
:1007000002B030BC70470468206992B202EB42022A
:100710004FF0070C0CFA02F220EA020222611C6878
:1007200020690A8802EB42028D6805FA02F2024350
:100730002261BFE70C2A16D81D68286B02EB8202E3
:10074000233A1F2404FA02F220EA02022A631D68F7
:10075000286B4A6802EB8202233A0C8804FA02F200
:1007600002432A63C1E71D68E86A02EB8202413A4C
:100770001F2404FA02F220EA0202EA621D68E86A13
:100780004A6802EB8202413A0C8804FA02F2024300
:10079000EA62AAE70A68122AABD11448426842F416
:1007A00080024260A5E70A68103A012AA5D80F48DE
:1007B000426842F4000242600A68102A9DD10C4A45
:1007C00012680C49A1FB0212920C02EB8202520049
:1007D000019202E0019A013A0192019A002AF9D1AC
:1007E0008BE702208CE700BF00200140002301407E
:1007F000E400002083DE1B43002800F0A18038B510
:10080000044690F82030D3B12268136843F0010306
:100810001360FFF747FE054623685A6812F0010F80
:1008200010D1FFF73FFE401B0A28F5D9636A43F455
:1008300000336362052384F82030012038BD08F0BE
:1008400085FAE1E71A6822F002021A60FFF72AFE31
:10085000054623685A6812F0020F0DD0FFF722FEFA
:10086000401B0A28F5D9636A43F400336362052309
:1008700084F820300120E1E7227E012A3DD01A6869
:1008800022F080021A60637E012B3BD0226813683D
:1008900023F040031360A37E012B39D02268136834
:1008A00023F020031360E37E012B37D02268136806
:1008B00043F010031360237F012B35D022681368A7
:1008C00023F008031360637F012B33D02268136881
:1008D00023F004031360A368E268134322691343FF
:1008E000626913436268013A21681343CB610020B7
:1008F0006062012384F82030A0E71A6842F0800289
:100900001A60C0E72268136843F040031360C2E72F
:100910002268136843F020031360C4E72268136859
:1009200023F010031360C6E72268136843F008033E
:100930001360C8E72268136843F004031360CAE732
:100940000120704790F82030013BDBB2012B05D924
:10095000436A43F4802343620120704730B5464B1D
:10096000D3F8002242F00102C3F80022D3F800229B
:1009700022F47C52C3F80022D3F80022486A42EAEB
:100980000022C3F800224A6902F01F02012000FA87
:1009900002F2D3F81C026FEA020C20EA0200C3F84C
:1009A0001C02CB69C3B9344BD3F80C020CEA00002B
:1009B000C3F80C028C884869CD6844EA0544483085
:1009C00043F830408C68088840EA04404C6904F1E0
:1009D000480E03EBCE035860CB69012B1ED08B6908
:1009E000002B33D12448D0F804320CEA0303C0F8BA
:1009F00004320B698BBB2048D0F814320CEA030395
:100A0000C0F814320B6A012B2ED01B4AD2F80032E8
:100A100023F00103C2F80032002030BD164BD3F89A
:100A20000C021043C3F80C028C8848690D6844EA34
:100A30000544483043F8304088894C698D6840EA65
:100A40000540483403EBC4035860C8E70A48D0F8AF
:100A500004321343C0F80432CBE70748D0F814320D
:100A60001343C0F81432CDE70349D1F81C321343C5
:100A7000C1F81C32C9E700BF0064004070B50446ED
:100A800090F82050EDB2012D06D0436A43F40023C4
:100A900043620125284670BD022380F82030026899
:100AA000136823F001031360FFF7FCFC064623687C
:100AB0005B6813F0010F0CD0FFF7F4FC831B0A2BCB
:100AC000F5D9636A43F400336362052384F8203068
:100AD000E0E700256562DDE730B590F820C00468E6
:100AE000A4680CF1FF3C5FFA8CFCBCF1010F62D8EA
:100AF00014F0E05F59D0C4F3016C012404FA0CF443
:100B00001C608B68002B3DD10D68CB68046843EAFC
:100B100045550CF118031B01E55003680C690CF1F5
:100B2000180E03EB0E135C600B7D012B35D0D179D1
:100B300093791B0443EA0163517943EA0123147951
:100B40000168234301EB0C11C1F88C31D178937803
:100B50001B0443EA0163517843EA012311780268D8
:100B60000B4302EB0C12C2F8883102680CF1180C2E
:100B70004FEA0C1C52F80C3043F0010342F80C30E1
:100B800000201DE04C6843EAC403CC6823430CF109
:100B90001804240105682B51BFE7036803EB0E130B
:100BA000596841F480715960C1E7436A43F4001306
:100BB0004362012004E0436A43F48023436201203E
:100BC00030BD90F82030013BDBB2012B01D9002071
:100BD00070470368986810F0806000D001209A6820
:100BE00012F0006F00D001309B6813F0805FEFD0EF
:100BF0000130704790F820C00CF1FF3C5FFA8CFC8C
:100C0000BCF1010F00F2A58030B451B90468E4686A
:100C100014F0030F10D1436A43F400134362012020
:100C20007EE00468246914F0030F05D1436A43F49D
:100C300000134362012073E0056801F11B042401E5
:100C40002C5904F004049460002C6BD1056801F168
:100C50001B0424012C59640D1460046801F11B0C61
:100C60004FEA0C1C54F80C4004F00204D4600468F1
:100C7000A444DCF8045015F0080F5BD0082414617C
:100C8000046801F11B0C04EB0C146468C4F3072422
:100C90009461046804EB0C146468240C54610268C9
:100CA00002EB0112D2F8B8211A70026802EB0112AD
:100CB000D2F8B821C2F307225A70026802EB01127F
:100CC000D2F8B821C2F307429A70026802EB01120F
:100CD000D2F8B821120EDA70026802EB0112D2F8D3
:100CE000BC211A71026802EB0112D2F8BC21C2F3D6
:100CF00007225A71026802EB0112D2F8BC21C2F33A
:100D000007429A71026802EB0112D2F8BC21120E5E
:100D1000DA71C1B90268D36843F02003D3600020C0
:100D200030BC7047056801F11B0424012C59E4080C
:100D3000546092E701F11B0504EB0514646804F0AC
:100D40000F0414619CE70268136943F020031361E8
:100D5000E5E7436A43F4802343620120704790F83B
:100D60002030013BDBB2012B01D90020704721B9B3
:100D70000368D86800F0030070470368186900F042
:100D80000300704790F82030013BDBB2012B05D9FE
:100D9000436A43F480234362012070470268536929
:100DA0000B4353610020704770477047704770478E
:100DB00070477047704770477047704770472DE91C
:100DC000F84F054603685C69D3F804809F68D3F840
:100DD0000CA0D3F81090D3F818B014F001063BD053
:100DE00017F0010616D001229A6017F0020F08D101
:100DF00017F0040F0CD117F0080606D04FF48056F8
:100E000008E0FFF7D1FF002604E0FFF7D0FF01E084
:100E10004FF4006617F4807F0DD02B684FF480727A
:100E20009A6017F4007F40F0968017F4806F00F00E
:100E3000968046F4005617F4803F0DD02B684FF48F
:100E400080329A6017F4003F40F0938017F4802FAF
:100E500000F0938046F4004614F0080F07D01AF013
:100E6000100F04D046F400762B681022DA6014F0DC
:100E7000040F03D01AF0080F40F0898014F0020F1D
:100E800005D02B68DB6813F0030F40F0878014F067
:100E9000400F07D019F0100F04D046F480662B687D
:100EA00010221A6114F0200F02D019F0080F79D126
:100EB00014F0100F04D02B681B6913F0030F78D1C6
:100EC00014F4003F02D018F0100F76D114F4803FD4
:100ED00002D018F0080F77D114F4004F37D018F073
:100EE000040F31D014F4807F04D01BF0010F01D027
:100EF00046F0010614F4007F04D01BF0020F01D06D
:100F000046F0020614F4806F04D01BF0040F01D0E9
:100F100046F0040614F4006F16D01BF0700B13D0CB
:100F2000BBF1400F66D056D8BBF1200F5CD0BBF1AF
:100F3000300F5CD0BBF1100F01D146F008062A68D3
:100F4000936923F0700393612B6804225A60002E8A
:100F500056D1BDE8F88F2846FFF727FF6BE717F457
:100F6000006F02D046F4804665E72846FFF720FF71
:100F700061E72846FFF71AFF6EE717F4002F02D04B
:100F800046F4803668E72846FFF713FF64E72B68CE
:100F90000822DA602846FFF70DFF6FE728460AF0BF
:100FA0007DFF74E72B6808221A612846FFF703FFCC
:100FB0007EE728460AF077FF82E72B6810225A6006
:100FC0002846FFF7F9FE81E72B6808225A60284679
:100FD000FFF7F3FE80E7BBF1500F0ED0BBF1600FBF
:100FE000ADD146F48076AAE746F01006A7E746F0B2
:100FF0002006A4E746F04006A1E746F080069EE7FB
:101000006B6A33436B622846FFF7D8FEA1E7000006
:10101000002807DB00F01F02400901239340024A29
:1010200042F82030704700BF00E100E0002808DBF4
:101030000901C9B200F1604000F5614080F8001379
:10104000704700F00F000901C9B2014B19547047F5
:1010500014ED00E000B500F00700C0F1070CBCF192
:10106000040F28BF4FF0040C031D062B0FD9C31E1D
:101070004FF0FF3E0EFA0CF021EA000199400EFA03
:1010800003FE22EA0E0241EA02005DF804FB00239F
:10109000EEE70000074AD36823F4E0631B041B0C4F
:1010A000000200F4E060034343F0BF6343F4003305
:1010B000D360704700ED00E010B50446054BD868DA
:1010C000C0F30220FFF7C6FF01462046FFF7AEFF40
:1010D00010BD00BF00ED00E008B5FFF799FF08BDA7
:1010E00058B110B5044643791BB101236371002048
:1010F00010BD037107F0DAFEF7E70120704770B109
:1011000010B50446037933B1022323710020206116
:101110000123237110BD437107F002FFF4E70120A2
:10112000704748B3844649B34379012B28D010B5A2
:101130004FF0010E80F805E0022303710468206877
:1011400002F0100240F6FE73934020EA03000B68A1
:1011500049680B43934003432360DCF800000368B5
:10116000C02101FA02F223EA020303608CF804E0D2
:1011700000208CF8050010BD012070470120704749
:101180000220704730B405682C6824F480242C6059
:10119000046863608368402B05D003689960036826
:1011A000DA6030BC704703689A600368D960F8E77A
:1011B00010B40368D9B210390A4AA2FB01421209DD
:1011C000094CA25CC2655F2907D96FF30903043398
:1011D0008365806D5DF8044B70476FF30903836589
:1011E000F7E700BFABAAAAAAD8210108836A8269DF
:1011F00092B9012B0AD0022B02D00BB1002070470C
:10120000C36A13F0807F28D100207047C36AB3F10E
:10121000C07F24D000207047B2F5005F09D0022BB8
:1012200025D9032B25D1C36A13F0807F23D1002059
:101230007047032B03D8DFE803F01404140A0020DE
:101240007047C36A13F0807F0DD100207047C36AD6
:10125000B3F1C07F09D00020704701207047012002
:10126000704701207047012070470120704701201E
:1012700070470020704701207047000070B5044699
:10128000FFF710F9002C5BD00546022384F83530B7
:10129000002384F834302268136823F001031360BC
:1012A00023681A6812F0010F0AD0FFF7FBF8431BFE
:1012B000052BF5D920236365032084F8350070BD24
:1012C0001A68204911406268A0680243E06802433E
:1012D0002069024360690243A0690243E069024356
:1012E000206A02430A43616A04291ED01A602668F4
:1012F000756925F00705636A1D43042B07D1A36AAE
:101300001D43E36A1BB12046FFF770FF90B975617A
:101310002046FFF74DFFE26D3F239340836000209E
:101320006065012384F83530C9E7E16A206B014329
:101330000A43DBE740236365012084F83500BEE7FC
:101340000120BCE73F8010F038B50446856D90F869
:10135000340001282BD0012084F8340094F83500A3
:10136000C0B2012804D0002384F83430022038BDF4
:10137000022084F83500002060652046FFF702FF58
:10138000E26D3F239340AB602268136843F016037D
:101390001360236C23B12268136843F008031360C1
:1013A0002268136843F0010313600020DFE7022086
:1013B000DDE770B50446866DFFF774F894F83530B4
:1013C000DBB2022B06D080236365002384F834301F
:1013D000012070BD05462268136823F016031360D0
:1013E0002268536923F080035361236CE3B12268C0
:1013F000136823F0080313602268136823F00103C5
:10140000136023681B6813F0010F11D0FFF74AF82F
:10141000431B052BF5D920236365032084F8350091
:10142000002384F83430D4E7A36C002BDFD1E3E74A
:10143000E26D3F239340B360012384F835300020F0
:1014400084F83400C5E790F83530DBB2022B03D0C6
:101450008023436501207047052380F835300268FA
:10146000136823F00103136000207047F0B583B0C8
:10147000044600230193724B1D68724BA3FB053594
:10148000AD0A876D3E68C26D08239340334210D089
:1014900003681A6812F0040F0BD01A6822F00402D5
:1014A0001A60C26D08239340BB60436D43F0010393
:1014B0004365E26D01239340334209D022685269AB
:1014C00012F0800F04D0BB60636D43F002036365CC
:1014D000E26D04239340334209D02268126812F06F
:1014E000020F04D0BB60636D43F004036365E26DDB
:1014F00010239340334224D02268126812F0080F60
:101500001FD0BB6023681A6812F4802F0DD01B68AF
:1015100013F4002F04D1236C9BB12046984710E0B0
:10152000A36C73B1204698470BE01A6812F4807FD1
:1015300003D11A6822F008021A60236C0BB120460E
:101540009847E26D20239340334255D022681268B9
:1015500012F0100F50D0BB6094F83530DBB2052B81
:101560000ED023681A6812F4802F33D01B6813F44E
:10157000002F2AD1636C002B3ED0204698473BE0D9
:101580002268136823F0160313602268536923F05E
:1015900080035361236CA3B12268136823F008030E
:1015A0001360E26D3F239340BB60012384F8353024
:1015B000002384F83430236D002B3FD02046984719
:1015C0003CE0A36C002BE7D1EBE7E36BA3B1204633
:1015D000984711E01A6812F4807F09D11A6822F046
:1015E00010021A60012384F83530002384F8343067
:1015F000E36B0BB120469847636DFBB1636D13F04D
:10160000010F17D0052384F835302268136823F0C2
:1016100001031360019B01330193AB4204D823689B
:101620001B6813F0010FF5D1012384F83530002336
:1016300084F83430E36C0BB12046984703B0F0BD1A
:10164000E4000020B5814E1B90F835007047000083
:10165000204BDB6813F0100F07D01F4AD36943F00B
:101660001003D3611B4B1022DA601A4BDB6813F0B6
:10167000200F07D0184AD36943F00803D361154BF4
:101680002022DA60134BDB6813F0400F07D0124AB8
:10169000D36943F00403D3610E4B4022DA600D4B53
:1016A000DB6813F0800F07D00B4AD36943F00203C5
:1016B000D361084B8022DA60064BDB6813F0020F1F
:1016C00007D0054AD36943F02003D361014B0222BE
:1016D000DA607047003C02401405002070477047F4
:1016E00010B53A4BDB6813F0F20F13D0384B1B7870
:1016F000DBB2012B3BD0364B1B78DBB2022B3CD04C
:10170000334B5C69FFF7A4FF2046FFF7E8FF304B3F
:1017100000221A702D4BDB6813F0010F13D02B4BF6
:101720000122DA602A4B1B78DBB2934228D0284B87
:101730001B78DBB2022B41D0254B5869FFF7CEFF57
:10174000234B00221A70224B1B787BB91F4B1A695E
:1017500022F0FF021A611A6922F080721A611A6976
:1017600022F000721A611A4B00221A7610BD184B33
:10177000DC684FF0FF32DA60C4E7154B1C69C1E743
:10178000134B5A68013A5A605B685BB1104CE068D1
:10179000FFF7A4FFE3680133E360E068217A00F01B
:1017A00019F8D0E70A4B4FF0FF34DC6000221A70C2
:1017B00000F036F82046FFF791FFC4E700F030F85C
:1017C000034B1869FFF78AFFBAE700BF003C0240ED
:1017D00014050020012905D0022906D039B14FF4A3
:1017E000407104E04FF4807101E04FF400710B4B45
:1017F0001A6922F440721A611A690A431A611A6955
:1018000022F0F8021A611A6942EAC00040F00200B0
:1018100018611A6942F480321A617047003C024034
:10182000164B1B6813F4007F10D0144B1A6822F477
:1018300000721A601A6842F400621A601A6822F490
:1018400000621A601A6842F400721A600B4B1B683F
:1018500013F4806F10D0094B1A6822F480621A606A
:101860001A6842F480521A601A6822F480521A6090
:101870001A6842F480621A60704700BF003C024060
:1018800000230F2B00F2E98070B582B065E0856817
:101890004FEA430E032404FA0EF425EA0405CC684B
:1018A00004FA0EF42C438460446824EA02044A6873
:1018B000C2F300129A40224342605CE0DC08083424
:1018C00050F8242003F00705AD004FF00F0E0EFA7C
:1018D00005FE22EA0E0E0A69AA4042EA0E0240F80C
:1018E00024205CE0072200E0002202FA0EF22A43E4
:1018F00002345A4D45F82420594A94686FEA0C0284
:1019000024EA0C054E6816F4801F01D04CEA040549
:10191000534CA560E46802EA04054E6816F4001F03
:1019200001D04CEA04054E4CE560646802EA040507
:101930004E6816F4003F01D04CEA0405484C65603F
:10194000246822404D6815F4803F01D04CEA04021F
:10195000434C226001330F2B7DD801229A400C6842
:1019600004EA020C32EA0404F4D14C6804F00304E3
:10197000013C012C8BD94A6802F00302032A09D0EA
:10198000C4685D000322AA4024EA02048A68AA40CF
:101990002243C2604A6802F00302022A8ED0046821
:1019A0004FEA430E032202FA0EF224EA02044A68C6
:1019B00002F0030202FA0EF2224302604A6812F4B5
:1019C000403FC7D000220192264A546C44F4804420
:1019D0005464526C02F480420192019A9C08A51C46
:1019E0001E4A52F8255003F0030E4FEA8E0E0F22C6
:1019F00002FA0EF225EA02051B4A90423FF474AF48
:101A000002F5806290421AD002F58062904218D0AE
:101A100002F58062904216D002F58062904214D0A6
:101A200002F58062904212D002F58062904210D09E
:101A300002F5806290423FF455AF082255E701223B
:101A400053E7022251E703224FE704224DE7052224
:101A50004BE7062249E702B070BD704700380140ED
:101A6000003C014000380240000002400AB18161A0
:101A7000704709048161704708B5054B5B690342F3
:101A800000D108BD024B58610AF05CFBF9E700BFCA
:101A9000003C014003685A6912F0800F01D0002217
:101AA0001A61704790F83E30DBB2402B10D00369CA
:101AB000B3F5804F1BD0036D002B39D1436CC3F3BA
:101AC000C813026803F0060343F0F0031361704784
:101AD000036D2BB9436C026803F0FE03136170477A
:101AE000436C026843F00103DBB21361704790F866
:101AF0003D30DBB2212B0FD0436C026843F0010371
:101B0000DBB21361436B6BB1DB6B5BB10268536893
:101B100043F4006353607047436C026803F0FE03B4
:101B20001361EFE7836B33B1DB6B002BEED102E087
:101B3000036D012B00D07047436CC3F3C8130268D8
:101B400003F0060343F0F1031361F4E7436C02680A
:101B5000DBB21361436B3BB1DB6B2BB102685368A3
:101B600043F4006353607047836B002BFBD0DB6B47
:101B7000002BF3D1F7E7000010B48BB090F83E30A3
:101B8000DAB2C16A046B90F83D30DBB2222B0BD085
:101B90000023099303685A6909929B690993099B79
:101BA0000BB05DF8044B7047036D0BB9402A17D09A
:101BB000036D1BB90369B3F5404F19D0438D9BB238
:101BC000002B25D1029303685A6902929A69029206
:101BD000029A1A6842F400721A6000230365DFE774
:101BE000009303685A6900929B690093009BD7E7B2
:101BF0000023019303685A6901929A690192019A3C
:101C00001A6842F480721A60036D01330365C7E7F6
:101C1000438D9BB2012B26D0438D9BB2022B7CD0EF
:101C20000268136843F48063136003685A6812F40F
:101C3000006F0FD0202900F2AE800829C0F0A780E5
:101C40000839574ACA4012F0010F03D05A6842F4CB
:101C500080525A600023089303685A6908929B696E
:101C60000893089BB9E711F5803F11D0082934D0BB
:101C7000202932D0122C2ED0042940D002293ED067
:101C800010293CD00268136823F4806313603BE0A2
:101C90000268136823F48063136003685A6812F4BF
:101CA000006F0CD01A6822F480621A60002303933C
:101CB00003685A6903929B690393039B8DE7002293
:101CC00004925A6904929A690492049A1A6842F436
:101CD00000721A6081E70129D0D00268136823F4EA
:101CE000806313600023069303685A6906929A6919
:101CF0000692069A1A6842F400721A606DE702684A
:101D0000136843F4806313600023059303685A69E2
:101D100005929B690593059B5FE710290AD8214B23
:101D2000CB4013F0010F05D00268136843F48063C1
:101D3000136009E00268136823F48063136002688B
:101D4000136843F40063136003685A6812F4006F69
:101D50000DD0202917D8082912D30839104ACA40B3
:101D600012F0010F03D05A6842F480525A600023E7
:101D7000079303685A6907929B690793079B2CE7AF
:101D80000129F4D1EFE711F5803FF0D1EBE701290C
:101D90007FF460AF5AE711F5803F7FF45BAF55E702
:101DA0000101000114000100438D9BB25BB1426A46
:101DB000036812781A61436A01334362438D9BB210
:101DC000013B9BB243857047438D9BB25BB1036877
:101DD0001A69436A1A70436A01334362438D9BB2A6
:101DE000013B9BB24385704782B0002301930E4BA9
:101DF0001B68DB080D4AA2FB03231B0A03EB8303CA
:101E00000193019B013B0193019B33B103681B6864
:101E100013F4007FF5D1002004E0036C43F02003AD
:101E20000364012002B07047E400002089B5F81473
:101E3000C36AB3F52A0F04D0C36AB3F12A4F03D0A3
:101E400070470123C36270470823C362F8E70000AC
:101E5000002800F0CC8070B5044690F83D30002B8F
:101E600077D0242384F83D302268136823F00103DF
:101E700013602268136843F40043136022681368F8
:101E800023F40043136002F037F862685A4B9A4219
:101E900064D85A4B98428CBF00230123002B40F09A
:101EA000A8805749A1FB00318B0C25686A6822F095
:101EB0003F0242EA91426A6021680A6A22F03F02C8
:101EC00066684D4DAE424FD8013313430B62216813
:101ED000CA6922F44F4222F0FF026568464B9D42D8
:101EE0004CD8431E6D00B3FBF5F3013340F6FC7094
:101EF000034278D0C3F30B031A43CA6121680B680D
:101F000023F0C003E269206A024313430B60216897
:101F10008B6823F4034323F0FF032269E068024344
:101F200013438B602168CB6823F0FF036269A069CB
:101F300002431343CB602268136843F0010313602C
:101F400000202064202384F83D30206384F83E0084
:101F500070BD80F83C3007F0B7F982E7294B984212
:101F60008CBF0023012399E74FF4967505FB03F31B
:101F7000254DA5FB03539B090133A6E7A668BEB90F
:101F8000431E05EB450CB3FBFCF30133C3F30B031A
:101F9000B3FA83F35B0943BBC6B9431E05EB4505A2
:101FA000B3FBF5F30133C3F30B0343F40043A3E79F
:101FB000431E05EB850C0CEB8C0CB3FBFCF30133DF
:101FC000C3F30B03B3FA83F35B09E4E7431E05EBAA
:101FD000850505EB8505B3FBF5F30133C3F30B036F
:101FE00043F4404388E7042386E7012384E7012084
:101FF00070470120ACE700BFA08601007F841E006F
:1020000083DE1B43FF083D00D34D621070477047CD
:1020100008B590F83D30DAB2438D9BB283B1416A86
:10202000036809781961436A01334362438D9BB2A7
:10203000013B9BB24385438D9BB20BB9292A00D04B
:1020400008BD0268536823F480635360212303634F
:10205000282380F83D30FFF7DAFFF1E7704708B535
:1020600090F83D30DAB2438D9BB283B103681969B1
:10207000436A1970436A01334362438D9BB2013B4B
:102080009BB24385438D9BB20BB92A2A00D008BD71
:102090000268536823F48063536022230363282378
:1020A00080F83D30FFF7DAFFF1E7704700B583B005
:1020B00090F83D3003F02803282B0CD00023019327
:1020C00002685169019192690192019A80F83C304D
:1020D00003B05DF804FB0268536823F48063536027
:1020E00011F0040F0BD0002311F0800F09D1828969
:1020F000002180F83C101946FFF7D7FFE8E70123DD
:10210000F2E7028BF4E7704710B5044690F83D30D3
:10211000DBB2C26A082A01D0202A01D1282B06D0BE
:10212000212B1FD023686FF480625A6110BD1D4BB4
:10213000E3622268536823F4E063536023686FF41A
:1021400080625A612268136823F48063136000235D
:102150002363202284F83D2084F83E302046FFF798
:10216000D2FFE3E70F4BE36221232363202384F8AC
:102170003D30002384F83E302268536823F4E06346
:10218000536023686FF480625A612268136823F4F5
:10219000806313602046FFF77DFC2046FFF737FF82
:1021A000C4E700BF0000FFFF704708B5C26A90F89F
:1021B0003D30DBB2212B00D008BD438D9BB263B113
:1021C000426A036812781A61436A01334362438D9D
:1021D0009BB2013B9BB24385EEE7082A04D0202A3C
:1021E00002D012F5803F19D10268536823F4E063EE
:1021F00053600268136843F40073136000230363A1
:10220000202380F83D3090F83E30DBB2402B15D0D3
:10221000002380F83E30FFF7F9FECDE702685368EF
:1022200023F4E063536011230363002380F83E30FE
:10223000202380F83D30FFF7E9FEBDE7002380F85A
:102240003E30FFF7B1FFB7E708B590F83D30026DBB
:102250009AB9C36C012B08D0836C0268C3F30723BF
:102260001361036D0133036508BD836C0268DBB243
:102270001361036D02330365F6E7DBB2026D012AD9
:1022800023D0026D022A3ED1222B26D0428D92B25B
:102290000AB1212B2AD0428D92B2002AE4D1212BFF
:1022A000E2D10268536823F4E06353600268136864
:1022B00043F40073136000230363202280F83D2061
:1022C00080F83E30FFF770FFCEE7836C0268DBB228
:1022D0001361036D01330365C6E70268136843F4B5
:1022E00080731360036D01330365BDE7426A0368C1
:1022F00012781A61436A01334362438D9BB2013BFA
:102300009BB24385B0E7FFF7C5FBADE710B590F88A
:102310003D30DBB290F83E20D2B2C46A018D002974
:102320003BD1212B02D0402A42D010BD082C04D032
:10233000202C02D014F5803F19D10268536823F491
:10234000E06353600268136843F400731360002372
:102350000363202380F83D3090F83E30DBB2402B01
:1023600015D0002380F83E30FFF750FEDDE702680D
:10237000536823F4E063536011230363002380F860
:102380003E30202380F83D30FFF740FECDE70023AC
:1023900080F83E30FFF708FFC7E7212BC3D1438DFC
:1023A0009BB243B90268536823F480635360BCE76F
:1023B000222BBAD1F3E790F83E30DBB2402B0CD0A1
:1023C000426A036812781A61436A01334362438D9B
:1023D0009BB2013B9BB24385A7E7FFF735FFA4E71C
:1023E00008B5C26A438D9BB2042B14D0438D9BB2B7
:1023F000032B22D0438D9BB2022B39D003681A697C
:10240000436A1A70436A01334362438D9BB2013BB6
:102410009BB2438510E00268536823F480635360E5
:1024200003681A69436A1A70436A01334362438D31
:102430009BB2013B9BB2438508BD01684B6823F406
:1024400080634B60042A06D0022A04D00268136815
:1024500023F48063136003681A69436A1A70436A3D
:1024600001334362438D9BB2013B9BB24385E3E75B
:10247000531E0F2B42D8DFE803F0083B413B41419C
:102480004141414141414141410801680B6823F408
:1024900080630B6003681969436A1970416A4B1CB9
:1024A0004362438D9BB2013B9BB2438503681B692A
:1024B0004B70436A01334362438D9BB2013B9BB235
:1024C000438501684B6823F440734B60202380F8F8
:1024D0003D3090F83E30DBB2402B15D0002380F821
:1024E0003E30082A17D0202A15D01223036314E0A7
:1024F00001680B6843F480630B60CBE701680B68ED
:1025000043F400730B60C5E7002380F83E3003639B
:1025100009F05AFE90E70023036309F02BFE8BE7D6
:10252000704738B590F83D30DBB2222B00D038BD73
:102530000446C56A438D9BB2032B15D903681A69FB
:10254000436A1A70436A01334362438D9BB2013B75
:102550009BB24385438D9BB2032BE8D1026853683D
:1025600023F480635360E2E7C26A022A01D0012BA0
:1025700005D92268536823F480635360D7E7FFF7D7
:1025800033FC002835D12268136823F4806313607C
:102590002268536823F4E063536023681A69636A0E
:1025A0001A70636A01336362638D9BB2013B9BB215
:1025B0006385202384F83D3094F83E30DBB2402B15
:1025C00009D0002384F83E30082D0CD0202D0AD0ED
:1025D0001223236309E0002384F83E30236320465E
:1025E00009F0F2FDA3E700232363204609F0C2FDB2
:1025F0009DE72268536823F4E063536023681A69F7
:10260000636A1A70636A01336362638D9BB2013B34
:102610009BB26385202384F83D30002384F83E304C
:102620002046FFF77DFF82E77047000000B583B0CA
:1026300000230193806B90F83D20D2B2324B1B688F
:10264000DB083249A1FB03131B0A03EB8303C3EB33
:10265000C3030193019B43B1019B013B01930368B9
:102660001B6813F4007FF5D103E0036C43F02003F3
:102670000364436B0BB10021D963836B0BB1002161
:10268000D96301680B6823F480630B6000234385E2
:10269000436B0BB100211965836B0BB100211965E8
:1026A00001680B6823F001030B6090F83D30DBB24A
:1026B000602B0ED002F02802282A14D0202380F8A4
:1026C0003D30002380F83E30FFF72AFF03B05DF86D
:1026D00004FB202380F83D30002380F83E30036463
:1026E000FFF7A2FFF2E70268136843F001031360EB
:1026F0000268136843F48063136000230363282394
:1027000080F83D30E0E700BFE400002089B5F81410
:1027100010B5044690F83D30DBB290F83E20D2B2BE
:10272000102A36D0402A34D003F02802282A38D084
:102730002268526812F4006F07D1602B05D0202365
:1027400084F83D30002384F83E300023236323685F
:102750005A6812F4006F48D05A6822F400625A6036
:10276000626B92F83530DBB2012B20D0444B1365FD
:10277000606BFEF768FE002849D02268136823F0DA
:1027800001031360202384F83D30606B036D98478C
:102790003DE0222BC8D121680A6822F400620A6059
:1027A000C2E700232363282384F83D30CFE7A36BDF
:1027B000334A1A65A06BFEF746FE40B323685A6998
:1027C00012F0400F05D01A69636A1A70636A013308
:1027D00063622268136823F001031360202384F8E6
:1027E0003D30A06B036D984711E094F83D20D2B2C4
:1027F000602A1FD05A6912F0400F05D01A69636A27
:102800001A70636A013363622046FFF789FE236C06
:1028100013F00F0F04D02268536823F4E063536071
:1028200094F83D30DBB2226C12F0040F01D0282B5B
:1028300018D010BD202284F83D20002222645A695D
:1028400012F0400F05D01A69636A1A70636A013387
:1028500063622268136823F0010313602046FFF7C8
:10286000E3FED4E7074BE36200232363202284F8CE
:102870003D2084F83E302046FFF745FCD9E700BFF5
:102880002D2600080000FFFF30B583B0044690F805
:102890003D50EDB20268536823F4E06353600023B7
:1028A000019303685A6901921A6842F001021A60A2
:1028B000019B0268136823F48063136003685A68FD
:1028C00012F4006F38D0222D21D02A2D1FD0426B58
:1028D0001268526892B24285428D92B21AB1026C6D
:1028E00042F0040202645A6822F400625A60606B8B
:1028F000FEF7AAFE01281FD0636B444A1A65606B7D
:10290000FEF7A1FDC0B1606B036D984714E0A26BA8
:102910001268526892B26285628D92B21AB1226CCC
:1029200042F0040222645A6822F400625A60A06BEA
:10293000FEF78AFE012842D1638D9BB233B3236830
:102940005A6912F0040F0AD01A69636A1A70636A2E
:1029500001336362638D9BB2013B9BB26385236845
:102960005A6912F0400F0AD01A69636A1A70636AD2
:1029700001336362638D9BB2013B9BB26385638DC0
:102980009BB21BB1236C43F004032364236C13BB81
:102990002A2D25D094F83D30DBB2282B29D0236B8B
:1029A000222B01D0222D19D100232363202284F869
:1029B0003D2084F83E302046FFF750FB0EE0A36B2D
:1029C000124A1A65A06BFEF73EFD0028B4D0A06B3A
:1029D000036D9847B0E72046FFF79AFE03B030BD7D
:1029E00000232363282384F83D302046FFF736FB7D
:1029F000D0E7074BE36200232363202284F83D20C5
:102A000084F83E302046FFF77EFBE7E72D260008DE
:102A10000000FFFFF8B5044602685568C66A90F8E2
:102A20003E30DBB290F83D10C8B2102B13D0402BD3
:102A300011D0236C002B7AD05369002113F0020FC0
:102A400078D015F4007F75D0236C03B191692046CE
:102A5000FFF72CFBF8BDD2F818C0516911F001073F
:102A600005D1B6F52A0FF5D0B6F12A4FF2D017B13D
:102A700015F4007F29D111F0080F02D015F4007F62
:102A80002AD111F0020F02D015F4007F28D11CF0DA
:102A9000040F31D0526812F4006FDBD111F0800FB7
:102AA00005D015F4806F02D011F0040F1CD011F086
:102AB000040FCFD015F4007FCCD0212818D0402BA4
:102AC000C8D12046FFF7C0FBC4E72046FFF7B0F9A6
:102AD0002046FEF7E7FFBDE72046FFF737F8B9E7E6
:102AE0002046FFF749F8B5E72046FFF70FFCB1E7AE
:102AF0002046FFF75AFBADE7536813F4006FA9D1E6
:102B000011F0400F05D015F4806F02D011F0040FC2
:102B100009D011F0040F9DD015F4007F9AD0204603
:102B2000FFF75EFC96E72046FFF7FBFC92E7916912
:102B3000536983E713F0100F02D015F4007F18D10A
:102B400021281AD0292818D013F0400F05D015F4E9
:102B5000806F02D013F0040F28D013F0040F3FF45D
:102B600079AF15F4007F3FF475AF2046FFF72CF9DD
:102B700070E72046FFF788FE6CE713F0800F05D062
:102B800015F4806F02D013F0040F0BD013F0040F74
:102B90003FF460AF15F4007F3FF45CAF2046FFF7D1
:102BA00003F957E72046FFF733FA53E72046FFF7CC
:102BB00056FA4FE7F8B5044603685D695F6890F818
:102BC0003E20D2B2C5F3002615F4807F08D0C7F3AB
:102BD000002617F4807F03D06FF4807159610126BD
:102BE00015F4007F08D017F4807F05D046F0020668
:102BF00023686FF40071596115F4806F19D017F4D0
:102C0000807F16D0638D99B294F83D30DBB2206B93
:102C1000202A1BD023686FF48061596146F00406B6
:102C2000102A01D0402A04D12268136843F40073AB
:102C3000136015F4006F17D017F4807F14D046F09E
:102C4000080623686FF400625A610EE00029E1D1A2
:102C5000212B05D0292B03D0282BDBD12128D9D13A
:102C60002046FFF751FAE4E72EB1236C3343236487
:102C70002046FFF74DFDF8BD2DE9F04383B0D0F8B5
:102C8000008001EBC10300EB83039A6A5B6A9A42FE
:102C900054D807460C469B1A01EBC10200EB820296
:102CA000D2699A4200D31A4602F103094FEA990900
:102CB00015E006F103094FEA9909BB7904EBC40555
:102CC00007EB8505296A0093B3B2E2B2404603F0F0
:102CD0005CFA2B6A33442B62AB6A3344AB6208EB79
:102CE000441303F510639B699BB24B4512D304EB6D
:102CF000C40307EB83039A6A5B6A9A420AD24BB118
:102D00009B1A04EBC40207EB8202D6699E42D0D321
:102D10001E46CEE704EBC40307EB83077A6ABB6A5F
:102D20009A420FD804F00F040122A240D8F8343898
:102D300023EA0203C8F83438002000E0012003B081
:102D4000BDE8F0830020FAE730B583B000287AD0E0
:102D50000446056890F89534C3B1032384F895348C
:102D6000B5F1A04F17D0206802F0C2FF237C8DF888
:102D70000030231D0ECB206802F0F8FE70B1022354
:102D800084F895340125284603B030BD80F894348A
:102D900007F08AFCE1E70023A371E4E70021206843
:102DA00003F003FC024608B9034617E0022384F847
:102DB00095340125E7E703EBC30104EB8101012012
:102DC00048750B75CB8500200876C861086203EB57
:102DD000C30104EB810148620133DBB220799842E0
:102DE000E9D816E002EBC20304EB8303002183F869
:102DF000551283F8542283F85812C3F85C12C3F8B2
:102E0000601202EBC20304EB8303C3F864120132C5
:102E1000D2B29042E6D8237C8DF80030231D0ECB31
:102E2000206802F0BBFF054620B1022384F89534E8
:102E30000125A8E700236374012384F895342068F2
:102E400003F072FB9FE701259DE7036890F8942447
:102E5000012A1AD010B50446012280F89424DA68B9
:102E600012F0400F02D0427B012A09D0206802F004
:102E700039FF206803F04AFB002084F8940410BD59
:102E80009A6B42F480329A63F0E7022070470000A8
:102E900070B504460D460068066C00EB411303F55F
:102EA00030639A68A179012911D038498E4256D0F1
:102EB0003DB905EBC50304EB8303D3F86432002B63
:102EC0005ED0E9B2204607F057FC002070BD12F03A
:102ED000080F09D02E498E42F7D912F4004FF4D0D2
:102EE0004FF400429A60F0E712F0200F02D0202247
:102EF0009A60EAE712F0280FE7D125498E4206D9F9
:102F000012F4004F03D04FF400429A60DDE705EB66
:102F1000C50204EB8202D2F874121B69C3F31203D8
:102F2000CB1AC2F868327DB905EBC50204EB820208
:102F3000D2F864226AB105EBC50204EB8202D2F832
:102F400060121944C2F86012E9B2204607F014FC7E
:102F5000BBE704F29C42012103F066FBF4E712F4A4
:102F6000004F03D04FF400429A60AEE712F0200FFA
:102F700001D020229A60E9B2204607F0FDFBA4E7C9
:102F800004F29C42002103F04FFB9AE70A31544FB0
:102F90000A30544F38B5044603681D6C03EB4113E7
:102FA000D3F8081B0E4A954207D903F5306311F494
:102FB000004F02D04FF400429A60204607F0D4FB45
:102FC000074B9D4202D9A379012B01D0002038BDC7
:102FD00004F29C420121206803F026FBF6E700BFC3
:102FE0000A30544F90F89434012B0CD010B504469D
:102FF000012380F894344174006803F077FA0020CC
:1030000084F8940410BD0220704738B505468C46FC
:1030100011F0800F29D101F00F0E0EEBCE04A400A9
:1030200004F514740444211D0EEBCE0E00EB8E0E3D
:1030300000208EF855020CF00F0C81F800C08A6059
:103040000B714A780AB1A1F81AC0022B1CD095F86E
:103050009434012B1BD0012385F89434286802F0A6
:1030600078FF002085F8940438BD01F00F0000EBD4
:10307000C001890010312944043100EBC00005EB88
:10308000800001244475D6E700234B71DFE702205E
:10309000EAE710B504460A4611F0800F20D101F08E
:1030A0000F0000EBC0039B0003F514732344191DAC
:1030B00000EBC00004EB8000002380F8553202F0E2
:1030C0000F020A7094F89434012B18D0012384F86D
:1030D0009434206802F08AFF002084F8940410BD24
:1030E00001F00F0000EBC0039B0010332344191DB7
:1030F00000EBC00004EB800001234375DFE70220F2
:10310000EDE710B5144601F00F0C0CEBCC01890073
:1031100001F51471014404310CEBCC0E00EB8E0E62
:10312000CEF86022CEF864320023CEF868328EF8F2
:1031300055328EF854C28279012A04D0006803F017
:103140003BF8002010BDCEF87042F7E701F00F0108
:1031500001EBC10100EB8100D0F86802704710B5A7
:10316000144601F00F0C0CEBCC0189001031014426
:1031700004310CEBCC0E00EB8E0ECEF82020CEF8F6
:1031800024300023CEF8283001238EF815308EF835
:1031900014C082799A4204D0006803F00DF8002030
:1031A00010BDCEF83040F7E738B501F00F050279D1
:1031B000AA4238D304460B4611F0800F1FD101EB11
:1031C000C101890001F514710144043103EBC3030B
:1031D00000EB8303002283F8552201238B700D70CE
:1031E00094F89434012B20D0012384F8943420687F
:1031F00003F021F985B1002084F8940438BD05EB73
:10320000C501890010310144043105EBC50300EB11
:10321000830301225A75E0E704F29C42A1792068F9
:1032200003F002FAE7E70120E8E70220E6E701F011
:103230000F0302799A4230D310B5044611F0800F83
:103240001ED103EBC301890001F51471014404315F
:1032500003EBC30200EB8202002082F85502002239
:103260008A700B7094F89434012B18D0012384F8E1
:103270009434206803F00CF9002084F8940410BD05
:1032800003EBC301890010310144043103EBC30295
:1032900000EB820201205075E1E701207047022017
:1032A000EDE708B511F0800F0CD101F00F0101EB33
:1032B000C101890001F5147101440431006802F074
:1032C00005FF08BD01F00F0101EBC10189001031BC
:1032D00001440431F2E72DE9F04F83B0044605685C
:1032E000284603F05EF910B103B0BDE8F08F064642
:1032F000206803F027F90028F6D005F50067BB68C1
:10330000C3F30D23C4F8D434206803F01BF910F084
:10331000020F04D02268536903F00203536120684E
:1033200003F010F910F0100F15D02268936923F004
:1033300010039361D5F8208008F00F0908F4F0130A
:10334000B3F5802F4CD0B3F5402F6FD0226893692E
:1033500043F010039361206803F0F4F810F4002F99
:1033600076D1206803F0EEF810F4802F40F0E08072
:10337000206803F0E7F80028C0F26181206803F0BC
:10338000E1F810F4006F09D0BB6813F0010F40F0B2
:103390006E812268536903F400635361206803F06F
:1033A000D1F810F4805F40F06681206803F0CAF81D
:1033B00010F4005F40F0B381206803F0C3F810F010
:1033C000080F40F0C481206803F0BCF810F0800FB3
:1033D00000F0D781AB6923F08003AB610126C0E127
:1033E00047F6F07318EA030FB0D04FEA181A4FEA05
:1033F000C903019309EBC90B04EB8B0BC8F30A1249
:10340000DBF86012284602F0F3FFDBF86032CAF303
:103410000A0A5344CBF86032DBF86832019A4A4416
:1034200004EB82025344C2F868328FE7082204F2A8
:103430009C41284602F0DCFF09EBC90304EB83033F
:10344000D3F86822C8F30A184244C3F868227DE71B
:10345000206803F07BF88046B14635E005EB491360
:103460000122C3F8082B49462046FFF711FD3CE036
:1034700005EB49130822C3F8082B49462046FFF7FD
:1034800089FD35E009EBC90304EB830393F8573258
:10349000012B41D005EB49130222C3F8082B1AF087
:1034A000200F04D005EB49132022C3F8082B1AF48F
:1034B000005F05D005EB49134FF40052C3F8082B09
:1034C00009F101094FEA5808B8F1000F3FF449AF7C
:1034D00018F0010FF4D05FFA89FB5946206803F019
:1034E00045F8824610F0010FB8D11AF0080FBFD18D
:1034F0001AF0100F04D005EB49131022C3F8082B63
:103500001AF0020FCBD06B6913F0800FBAD07B6832
:1035100043F480637B60B5E709EBC90304EB8303E5
:10352000002283F857225946204607F075F9B1E783
:10353000206803F013F88046B14625E0594620463E
:1035400007F026F91AF0080F04D005EB49130822FA
:10355000C3F808291AF0100F04D005EB4913102204
:10356000C3F808291AF0400F04D005EB4913402294
:10357000C3F808291AF0020F40D11AF0800F59D170
:1035800009F101094FEA5808B8F1000F3FF4F0AE15
:1035900018F0010FF4D05FFA89FB5946206802F059
:1035A000EEFF824610F0010FCCD009F00F0201218E
:1035B00001FA02F27B6B23EA02037B6305EB4913FA
:1035C000C3F80819A3798B42B8D109EBC90304EBFE
:1035D00083031A6AD9690A441A62B9F1000FADD19E
:1035E00009EBC90304EB83035B6A002BA6D104F249
:1035F0009C420121206803F017F89FE749462846BE
:1036000002F07CFB09EBC90304EB8303DB7D012B98
:1036100005D005EB49130222C3F80829ADE709EBF1
:10362000C90304EB83030022DA755946204607F0EC
:10363000F9F8EEE749462046FFF71EFBA0E77B6856
:1036400023F001037B6094F8CC34012B08D0204692
:1036500007F0DCF82268536903F0004353618DE6FC
:10366000002184F8CC14204600F03FF9F2E7204610
:1036700007F0B4F88DE67B6823F001037B6010212E
:10368000206802F03BFB1AE005EB46134FF67F3152
:10369000C3F80819D3F8002922F40012C3F800294E
:1036A000C3F8081BD3F8002B22F40012C3F8002B38
:1036B000D3F8002B42F00062C3F8002B01362379C7
:1036C000B342E1D8FB6943F00113FB61E37BDBB15B
:1036D000D7F8843043F00B03C7F884307B6C43F099
:1036E0000B037B64D5F8003823F4FE63C5F800387B
:1036F00004F29C42A179206802F096FF2268536987
:1037000003F48053536150E67B6943F4005343F064
:103710002B037B613B6943F00B033B61E2E72068CD
:1037200002F074FF206802F003FCE071266800F0EC
:10373000DDFB0146E279304602F062FA204607F0EE
:1037400038F82268536903F40053536134E6204685
:1037500007F029F82268536903F00803536132E641
:1037600001362379B3420CD906EBC60304EB83037D
:1037700093F85732012BF3D1F1B22046FFF791FDB8
:10378000EEE7206802F0DEFE10F4801F25D12068ED
:1037900002F0D8FE10F4001F59D0012326E00136B4
:1037A0002379B3421BD905EB4613D3F8002906EB66
:1037B000C60304EB83031B7E012BF0D1002AEEDA53
:1037C00006EBC60304EB83030122DA7566F07F0182
:1037D000C9B22046FFF765FDE1E70126E0E7226870
:1037E000536903F480135361D1E7013322799A427C
:1037F00028D905EB4312D2F8001B03EBC30204EBFC
:10380000820292F85822012AEFD10029EDDA01F460
:103810008031D4F8D42402F001029142E5D103EBC7
:10382000C30204EB8202012182F85712AA6942F016
:103830008002AA616A6912F0800FD6D17B6843F4D6
:1038400000737B602268536903F40013536120689E
:1038500002F078FE10F0804F10D1206802F072FE66
:1038600010F0040F3FF440AD23685D6815F0040FBD
:103870000DD1226853682B43536035E5204606F08E
:10388000D7FF2268536903F080435361E5E7204680
:1038900006F0D4FFEDE710B40468606A31B940EA7D
:1038A0000240A06200205DF8044B70478C46A36A7A
:1038B00000EB1340002308E003F1400104EB810119
:1038C000496800EB11400133DBB20CF1FF318B4250
:1038D000F2D340EA02400CF13F0104EB8104606046
:1038E000E0E703685962002070477047002800F045
:1038F000E08170B582B00446036813F0010F3BD03D
:103900009F4B9B6803F00C03042B2CD09C4B9B68B3
:1039100003F00C03082B21D06368B3F5803F4FD030
:10392000B3F5A02F52D0964B1A6822F480321A6059
:103930001A6822F480221A606368002B50D0FCF7CA
:10394000B1FD05468E4B1B6813F4003F14D1FCF704
:10395000A9FD401B6428F5D90320B1E1884B5B68C1
:1039600013F4800FD8D0864B1B6813F4003F03D0AC
:103970006368002B00F09F81236813F0020F54D07E
:103980007F4B9B6813F00C0F3ED07D4B9B6803F080
:103990000C03082B33D0E368002B68D0794B01224D
:1039A0001A60FCF77FFD0546754B1B6813F0020F8C
:1039B00054D1FCF777FD401B0228F5D903207FE1A5
:1039C0006F4A136843F480331360B5E76C4B1A6891
:1039D00042F480221A601A6842F480321A60ABE71F
:1039E000FCF760FD0546664B1B6813F4003FC3D02F
:1039F000FCF758FD401B6428F5D9032060E1604BBB
:103A00005B6813F4800FC6D15D4B1B6813F0020F87
:103A100003D0E368012B40F05081594A136823F02A
:103A2000F803216943EAC1031360236813F0080F08
:103A300042D063696BB3534B0122C3F8802EFCF76D
:103A400031FD05464E4B5B6F13F0020F34D1FCF78E
:103A500029FD401B0228F5D9032031E1484A1368AB
:103A600023F0F803216943EAC1031360DDE7454B06
:103A700000221A60FCF716FD0546414B1B6813F047
:103A8000020FD2D0FCF70EFD401B0228F5D903200F
:103A900016E13C4B0022C3F8802EFCF703FD0546DF
:103AA000374B5B6F13F0020F06D0FCF7FBFC401B9B
:103AB0000228F5D9032003E1236813F0040F77D01F
:103AC0002F4B1B6C13F0805F33D1002301932C4BE1
:103AD0001A6C42F080521A641B6C03F080530193FD
:103AE000019B0125284B1B6813F4807F23D0A3681A
:103AF000012B34D0052B38D0214B1A6F22F0010254
:103B00001A671A6F22F004021A67A368002B3DD0CF
:103B1000FCF7C8FC06461A4B1B6F13F0020F46D188
:103B2000FCF7C0FC801B41F288339842F3D9032094
:103B3000C6E00025D6E7144A136843F48073136087
:103B4000FCF7B0FC0646104B1B6813F4807FCED107
:103B5000FCF7A8FC801B0228F5D90320B0E0084A36
:103B6000136F43F001031367CFE7054B1A6F42F061
:103B700004021A671A6F42F001021A67C5E700BF14
:103B8000003802400000474200700040FCF78AFC09
:103B90000646524B1B6F13F0020F08D0FCF782FC55
:103BA000801B41F288339842F3D9032088E0EDB9B5
:103BB000A369002B00F08380484A926802F00C024F
:103BC000082A51D0022B17D0454B00221A66FCF769
:103BD00069FC0446414B1B6813F0007F42D0FCF7A0
:103BE00061FC001B0228F5D9032069E03B4A136CF5
:103BF00023F080531364DBE7394B00221A66FCF78D
:103C000051FC0546354B1B6813F0007F06D0FCF7CE
:103C100049FC401B0228F5D9032051E0E369226AE0
:103C20001343626A43EA8213A26A5208013A43EAE2
:103C30000243E26A43EA0263284A5360284B0122A6
:103C40001A66FCF72FFC0446244B1B6813F0007F18
:103C500006D1FCF727FC001B0228F5D903202FE032
:103C600000202DE000202BE0012B2BD01B4B5B68AC
:103C700003F48001E269914226D103F03F02216AF8
:103C80008A4223D1616A47F6C0721A40B2EB811FA3
:103C90001ED103F44031A26A5208013AB1EB024F3F
:103CA00018D103F07063E26AB3EB026F14D1002005
:103CB00006E001207047012002E0012000E0002022
:103CC00002B070BD0120FBE70120F9E70120F7E712
:103CD0000120F5E70120F3E70120F1E70038024079
:103CE0000000474208B5264B9B6803F00C03042BE9
:103CF00041D0082B41D1224B5A6802F03F025B6849
:103D000013F4800F12D01E4B5968C1F388111D485F
:103D10000023A1FB0001FCF73BFA194B5B68C3F3DE
:103D2000014301335B00B0FBF3F008BD144B58684E
:103D3000C0F388104FEA401CBCEB000C6EEB0E0E7B
:103D40004FEA8E1343EA9C634FEA8C11B1EB0C01EE
:103D500063EB0E03DB0043EA5173C90011EB000C67
:103D600043F10003990200234FEA8C2041EA9C5161
:103D7000FCF70EFAD1E70348D7E70348D5E700BFC1
:103D800000380240001BB7000024F400002800F0B7
:103D90009B8070B50D4604464F4B1B6803F007032C
:103DA0008B4208D2CBB24C4A1370136803F007035E
:103DB0008B4240F08B80236813F0020F17D013F072
:103DC000040F04D0454A936843F4E053936023689A
:103DD00013F0080F04D0414A936843F460439360A2
:103DE0003E4A936823F0F003A1680B439360236875
:103DF00013F0010F32D06368012B21D09A1E012AE3
:103E000025D9364A126812F0020F61D033498A6808
:103E100022F0030213438B60FCF744FB06462F4B52
:103E20009B6803F00C036268B3EB820F16D0FCF7BB
:103E300039FB801B41F288339842F0D9032042E0DD
:103E4000264A126812F4003FE0D101203BE0234AE9
:103E5000126812F0007FD9D1012034E01E4B1B689C
:103E600003F00703AB4207D9EAB21B4B1A701B6879
:103E700003F00703AB422DD1236813F0040F06D0E3
:103E8000164A936823F4E053E1680B439360236878
:103E900013F0080F07D0114A936823F46043216997
:103EA00043EAC1039360FFF71DFF0C4B9B68C3F30C
:103EB00003130B4AD35CD8400A4B18600A4B1868AE
:103EC00005F036FD002070BD012070470120FAE7A3
:103ED0000120F8E70120F6E7003C024000380240EC
:103EE000282A0108E400002054000020014B186833
:103EF000704700BFE400002008B5FFF7F7FF044B50
:103F00009B68C3F38223034AD35CD84008BD00BF3B
:103F100000380240202A010808B5FFF7E7FF044BEC
:103F20009B68C3F34233034AD35CD84008BD00BF4B
:103F300000380240202A01080F2303600B4B9A68C7
:103F400002F0030242609A6802F0F00282609A680E
:103F500002F4E052C2609B68DB0803F4E0530361A3
:103F6000034B1B6803F007030B60704700380240E7
:103F7000003C024030B583B00446036813F0050FDF
:103F800006D1236813F0020F2ED1002003B030BDFC
:103F90004A4B00229A66FCF785FA0546484B1B6897
:103FA00013F0006F06D0FCF77DFA431B022BF5D906
:103FB0000320EBE76268A3681B0743EA8213404AC9
:103FC000C2F884303D4B01229A66FCF76BFA054635
:103FD0003B4B1B6813F0006FD3D1FCF763FA431B14
:103FE000022BF5D90320D1E700230193344B1A6C3F
:103FF00042F080521A641B6C03F080530193019BC2
:10400000304A136843F480731360FCF74BFA05469B
:104010002C4B1B6813F4807F06D1FCF743FA431B3B
:10402000022BF5D90320B1E7254B1B6F13F4407326
:1040300014D0E26802F440729A420FD0204B1A6FFB
:1040400022F440721D490120C1F8400E0020C1F841
:10405000400E1A671B6F13F0010F13D1E36803F4CE
:104060004072B2F5407F1ED0154A936823F4F813CE
:10407000936013490B6FE268C2F30B0213430B67A3
:10408000002083E7FCF70EFA05460D4B1B6F13F07B
:10409000020FE3D1FCF706FA401B41F28833984245
:1040A000F3D9032072E706498A6822F4F81223F054
:1040B000704323F4407313438B60DAE700004742F8
:1040C000003802400070004038B5FCF7EBF90446B8
:1040D000464A136843F001031360444B1B6813F016
:1040E000020F06D1FCF7DEF9001B0228F5D90320E8
:1040F00038BD3E4D2B6843F080032B60FCF7D2F9AE
:1041000004460023AB60394B9B6813F00C0F08D0BA
:10411000FCF7C8F9001B41F288339842F3D9032019
:10412000E6E7FCF7BFF90446304A136823F450234E
:1041300013602E4B1B6813F4003F06D0FCF7B2F956
:10414000001B6428F5D90320D2E7FCF7ABF904463D
:10415000264A136823F080731360244B1B6813F006
:10416000007F06D0FCF79EF9001B0228F5D903203A
:10417000BEE7FCF797F904461C4A136823F08063F6
:1041800013601A4B1B6813F0006F06D0FCF78AF916
:10419000001B0228F5D90320AAE7144B144A5A60E1
:1041A000144AC3F88420DA6822F4F852DA60DA6834
:1041B00022F40052DA60DA6842F41F02DA60DA6848
:1041C00042F40012DA605A6F22F001025A675A6F05
:1041D00042F080725A67084B084A1A60084B186808
:1041E00005F0A6FB002883D0012081E700380240BB
:1041F0001030000400300020E40000200024F4000F
:104200005400002098B110B5044643795BB10223F5
:1042100063712268136843F0040313600123637120
:104220000020A06010BD037105F0E4F9EFE7012064
:104230007047000038B5044603680A4ADA60FCF7A4
:1042400031F905462368DB6813F0200F07D1FCF72E
:1042500029F9401BB0F57A7FF4D9032000E0002053
:1042600038BD00BF5F7F010070B50368DA6812F0E7
:10427000400F02D00025284670BD0446DA6842F09F
:104280008002DA60FCF70EF9064600252368DB6839
:1042900013F0400FEFD1002DEDD1FCF703F9831B94
:1042A000B3F57A7FF2D9042363770125EEE702683C
:1042B000D36823F08003D36003689B6813F0200F5A
:1042C00001D00020704710B50446FFF7B3FF10B1CE
:1042D00004236377012010BD00284AD010B504469E
:1042E000437F53B1022363772368DA6812F0100F1B
:1042F00007D000200123637710BD037705F0ACF9E8
:10430000F0E7CA225A62236853225A622046FFF716
:10431000ABFF28B12368FF225A620028ECD1E9E7FD
:104320002268936823F4E00323F04003936021683C
:104330008A686368206903436069034313438B60A1
:104340002368E2681A6122681369A16843EA01439D
:1043500013612046FFF7ABFF0028DBD12268136C06
:1043600023F4802313642268136CA1690B43136444
:10437000D0E70120704700002DE9F04782B00546E4
:10438000884617461E46FCF78DF80A9B1B1A03EB5E
:104390000609FCF787F88246284B1B68C3F3CB332A
:1043A00009FB03F301932B689C6838EA04040CBFF3
:1043B00001230023BB423DD0B6F1FF3FF3D0FCF711
:1043C00071F8A0EB0A00484507D2019A02B14A46AB
:1043D000019B013B01939146E5E72A68536823F06E
:1043E000E00353606B68B3F5827F0BD0AB6AB3F523
:1043F000005F14D0012385F85130002385F8503038
:10440000032018E0AB68B3F5004F02D0B3F5806F1E
:10441000ECD12A68136823F040031360E6E72A68AA
:10442000136823F4005313602A68136843F400539D
:104430001360DFE7002002B0BDE8F087E400002051
:1044400070B584B004460D46164600920B46012214
:104450000221FFF791FFD0B9174B1B68174AA2FB47
:1044600003235B0D4FF47A7202FB03F3039363683B
:10447000B3F5827F11D0039B3BB1039B013B0393B8
:1044800023689B6813F0800FF5D104B070BD636D95
:1044900043F0200363650320F7E700962B460022D4
:1044A00080212046FFF768FF0028EED0636D43F0BF
:1044B000200363650320E8E7E4000020819F5E1687
:1044C00000285AD010B50446436A33B94368B3F59F
:1044D000827F05D00023C36102E0002303614361B2
:1044E0000023A36294F85130002B40D0022384F8BB
:1044F00051302268136823F040031360636803F4AB
:104500008273A26802F404421343E26802F4006278
:104510001343226902F002021343626902F00102AE
:104520001343A26902F400721343E26902F03802F5
:104530001343226A02F080021343A26A02F400527B
:10454000216813430B60638B03F00403626A02F07B
:104550001002216813434B602268D36923F400637F
:10456000D36100206065012384F8513010BD84F8C8
:104570005030204605F0DCF8B8E7012070472DE9FF
:10458000F04383B01F460A9D90F85030012B00F095
:104590001681044688469146012380F85030FBF787
:1045A00081FF064694F85130DBB26268012B0AD0D5
:1045B000B2F5827F40F0F080A268002A40F0F380DC
:1045C000042B40F0F280B8F1000F00F0F080B9F158
:1045D000000F00F0EE80002F00F0ED8094F85130D5
:1045E000DBB2042B02D0052384F85130002363652D
:1045F000C4F83890E787A787C4F83080E786A78695
:104600002364636423681A6812F0400F03D11A68A8
:1046100042F040021A60E368B3F5006F11D063689E
:104620000BB1012F0BD1226B236812781A73236B05
:1046300001332363E38E9BB2013B9BB2E3860127E8
:104640006EE063680BB1012F0BD1226B23681288D7
:10465000DA60236B02332363E38E9BB2013B9BB290
:10466000E38601271BE023689A6812F0010F0ED041
:10467000E28F92B25AB1DA68A36B1A80A36B02334D
:10468000A363E38F9BB2013B9BB2E3870127FBF758
:1046900009FF801BA84202D3B5F1FF3F1ED1E38E74
:1046A0009BB21BB9E38F9BB2002B5CD023689A6846
:1046B00012F0020FD7D0E28E92B2002AD3D0002F90
:1046C000D1D0226B1288DA60236B02332363E38E2E
:1046D0009BB2013B9BB2E3860027C4E7012384F829
:1046E0005130032059E023689A6812F0010F0ED070
:1046F000E28F92B25AB1DA68A36B1A70A36B0133DE
:10470000A363E38F9BB2013B9BB2E3870127FBF7D7
:10471000C9FE831BAB4202D3B5F1FF3F1ED1EDB101
:10472000E38E9BB213B9E38F9BB2E3B123689A681F
:1047300012F0020FD7D0E28E92B2002AD3D0002F0F
:10474000D1D0226B12781A73236B01332363E38E6B
:104750009BB2013B9BB2E3860027C4E7012384F8A8
:104760005130032019E0324629462046FFF768FE03
:1047700070B9A36833B901932368DA6801929B6822
:104780000193019B636DC3B9012384F8513004E0A8
:1047900020236365012000E00220002384F85030CC
:1047A00003B0BDE8F0830220F7E70220F5E701201F
:1047B000F3E70120F1E70120EFE70120EDE7022018
:1047C000EEE7704730B585B00446026851689368DB
:1047D000C3F3801013F0400F05D113F0010F02D086
:1047E00011F0400F69D113F0020F02D011F0800FC9
:1047F00067D1C3F3401513F0200F03D110B913F4A0
:10480000807F61D011F0200F5ED078B194F8510014
:10481000C0B203285AD0606D40F0040060650020EB
:104820000090D068009090680090009865B1606D2D
:1048300040F00100606500200290906802901068CE
:1048400020F040001060029A13F4807F09D0636D5D
:1048500043F0080363650023039323689B68039375
:10486000039B636D002B2FD02268536823F0E00375
:104870005360012384F8513011F0030F2ED02268C9
:10488000536823F003035360E36C4BB1154A1A6578
:10489000E06CFCF7D8FD18B1636D43F0400363652D
:1048A000A36C8BB10F4A1A65A06CFCF7CCFD58B114
:1048B000636D43F04003636506E0236C2046984730
:1048C00002E0636C2046984705B030BD0023019399
:1048D000D368019393680193019BF5E72046FFF7A6
:1048E00070FFF1E7E948000808B5806B0023C38733
:1048F000C386FFF766FF08BD30B4036A026A22F080
:10490000010202624268846924F0730C0C6844EA74
:104910000C0423F0020C8B6843EA0C03114DA842EF
:1049200003D005F58065A84205D123F00803CD68C2
:104930002B4323F004030B4DA84203D005F58065FB
:10494000A84207D122F440724D6945EA020C8A69F7
:1049500042EA0C02426084614A684263036230BCEE
:10496000704700BF0000014030B4036A026A22F4BD
:10497000807202624268C46924F0730C0C6844EAD5
:104980000C0523F400738C6843EA0423114CA04205
:1049900003D004F58064A04206D123F40063CC6800
:1049A00043EA042323F480630A4CA04203D004F5B5
:1049B0008064A04207D122F440524C6942EA0412BA
:1049C0008C6942EA04124260C5614A68C2630362AC
:1049D00030BC70470000014030B4036A026A22F420
:1049E000805202624468C26922F4E6420D6842EADB
:1049F000052223F400538D6843EA0533094DA8428C
:104A000003D005F58065A84204D124F480444D69A3
:104A100044EA85144460C2614A680264036230BC9F
:104A2000704700BF0000014010B4036A046A24F01C
:104A300001040462846924F0F00C4CEA021223F0B1
:104A40000A030B43826103625DF8044B704710B4A4
:104A5000036A046A24F010040462846924F4704C2C
:104A60004CEA023223F0A00343EA0113826103629D
:104A70005DF8044B7047836823F070030B4343F0E9
:104A8000070383607047000090F83D30DBB2012BD4
:104A900037D1022380F83D300268D36843F0010328
:104AA000D3600368194A934220D0B3F1804F1DD0E0
:104AB000A2F57C42934219D002F58062934215D050
:104AC00002F58062934211D002F5784293420DD0F4
:104AD00002F57052934209D0A2F59432934205D068
:104AE0001A6842F001021A60002070479A6802F0CA
:104AF0000702062A07D01A6842F001021A60002055
:104B00007047012070470020704700BF000001403F
:104B10007047704770477047704770B50446036828
:104B2000DE681D6915F0020F10D016F0020F0DD0CF
:104B30006FF002021A610123037703689B6913F087
:104B4000030F5ED0FFF7E7FF0023237715F0040F74
:104B500012D016F0040F0FD023686FF004021A6110
:104B60000223237723689B6913F4407F4FD02046AC
:104B7000FFF7D1FF0023237715F0080F12D016F0AE
:104B8000080F0FD023686FF008021A6104232377FF
:104B90002368DB6913F0030F40D02046FFF7BBFF0B
:104BA0000023237715F0100F12D016F0100F0FD03E
:104BB00023686FF010021A61082323772368DB69EA
:104BC00013F4407F31D02046FFF7A5FF0023237761
:104BD00015F0010F02D016F0010F2DD115F0800F46
:104BE00002D016F0800F2FD115F0400F02D016F032
:104BF000400F31D115F0200F02D016F0200F33D125
:104C000070BDFFF787FF204607F020FB9CE720469A
:104C1000FFF780FF204607F019FBABE72046FFF7C0
:104C200079FF204607F012FBBAE72046FFF772FF34
:104C3000204607F00BFBC9E723686FF001021A61F9
:104C4000204604F01BFCC9E723686FF080021A615C
:104C5000204600F063FBC7E723686FF040021A614B
:104C60002046FFF759FFC5E723686FF020021A615D
:104C7000204600F052FBC3E70368344A904212D04A
:104C8000B0F1804F0FD0A2F57C4290420BD002F5DC
:104C90008062904207D002F58062904203D002F514
:104CA0007842904203D123F070034A681343274AA5
:104CB00090422AD0B0F1804F27D0A2F57C4290429A
:104CC00023D002F5806290421FD002F580629042AC
:104CD0001BD002F57842904217D002F570529042F4
:104CE00013D002F5806290420FD002F580629042AC
:104CF0000BD0A2F59832904207D002F58062904224
:104D000003D002F58062904203D123F44073CA6855
:104D1000134323F080034A69134303608B68C36223
:104D20000B688362094B984203D003F58063984275
:104D300001D10B69036301234361036913F0010F80
:104D400003D0036923F001030361704700000140B1
:104D500040B310B5044690F83D30F3B1022384F817
:104D60003D30214651F8040BFFF786FF012384F8FC
:104D7000463084F83E3084F83F3084F8403084F880
:104D8000413084F8423084F8433084F8443084F869
:104D9000453084F83D30002010BD80F83C3004F0F0
:104DA00003FFDBE70120704740B310B5044690F8DD
:104DB0003D30F3B1022384F83D30214651F8040B15
:104DC000FFF75AFF012384F8463084F83E3084F818
:104DD0003F3084F8403084F8413084F8423084F821
:104DE000433084F8443084F8453084F83D30002066
:104DF00010BD80F83C30FFF78BFEDBE701207047E9
:104E000040B310B5044690F83D30F3B1022384F866
:104E10003D30214651F8040BFFF72EFF012384F8A3
:104E2000463084F83E3084F83F3084F8403084F8CF
:104E3000413084F8423084F8433084F8443084F8B8
:104E4000453084F83D30002010BD80F83C30FFF73D
:104E500060FEDBE70120704730B4036A026A22F08B
:104E6000100202624468826922F4E6420D6842EA56
:104E7000052223F020038D6843EA0513114DA84253
:104E800003D005F58065A84206D123F08003CD68E4
:104E900043EA051323F040030A4DA84203D005F569
:104EA0008065A84207D124F440644D6944EA850432
:104EB0008D6944EA8504446082614A6882630362C2
:104EC00030BC70470000014090F83C30012B28D0E6
:104ED00010B50446012380F83C300C2A1CD8DFE8CA
:104EE00002F0071B1B1B0C1B1B1B111B1B1B1600A3
:104EF0000068FFF701FD00200FE00068FFF7ACFF3E
:104F000000200AE00068FFF72FFD002005E00068A0
:104F1000FFF762FD002000E00120002384F83C3010
:104F200010BD0220704738B590F83C30012B66D098
:104F300004460D46012380F83C300C2A5AD8DFE89D
:104F400002F0075959591B595959305959594400B8
:104F50000068FFF7D1FC2268936943F0080393616E
:104F60002268936923F00403936122689369296995
:104F70000B43936100203EE00068FFF76DFF22685D
:104F8000936943F4006393612268936923F4806317
:104F9000936122689369296943EA012393610020A0
:104FA00029E00068FFF7E0FC2268D36943F00803BA
:104FB000D3612268D36923F00403D3612268D369E3
:104FC00029690B43D361002015E00068FFF704FD59
:104FD0002268D36943F40063D3612268D36923F460
:104FE0008063D3612268D369296943EA0123D361CD
:104FF000002000E00120002384F83C3038BD02206E
:10500000FCE710B4846824F47F4C42EA03220A438C
:1050100042EA0C0282605DF8044B704790F83C3025
:10502000012B78D010B50446012380F83C300223D0
:1050300080F83D300268936823F47F4323F07703C0
:1050400093600B68602B4CD023D8402B54D011D8E0
:10505000202B03D00AD80BB1102B05D1194620689C
:10506000FFF709FD002028E0012026E0302BF5D0D5
:10507000012022E0502B0AD1CA6849680068FFF776
:10508000D3FC50212068FFF7F6FC002015E001203A
:1050900013E0B3F5805F3AD0B3F5005F14D0702B06
:1050A00037D1CB684A6889680068FFF7AAFF226891
:1050B000936843F0770393600020012384F83D3028
:1050C000002384F83C3010BDCB684A6889680068CA
:1050D000FFF797FF2268936843F4804393600020B2
:1050E000EBE7CA6849680068FFF7B1FC60212068F7
:1050F000FFF7C1FC0020E0E7CA6849680068FFF7D5
:1051000093FC40212068FFF7B6FC0020D5E7002083
:10511000D3E70120D1E70220704701F01F014FF0D3
:10512000010C0CFA01FC036A23EA0C030362036A14
:105130008A4013430362704710B5044608460029AD
:1051400042D194F83E30DBB2013B18BF0123002B63
:105150006ED1002851D1022384F83E30012201464D
:105160002068FFF7DAFF2368334A934203D002F541
:105170008062934203D15A6C42F400425A6423681D
:105180002D4A934249D0B3F1804F46D0A2F57C42DC
:10519000934242D002F5806293423ED002F5806293
:1051A00093423AD002F57842934236D002F57052DB
:1051B000934232D0A2F5943293422ED01A6842F034
:1051C00001021A60002032E0042908D008290DD01D
:1051D00094F84130DBB2013B18BF0123B7E794F8E4
:1051E0003F30DBB2013B18BF0123B0E794F84030F9
:1051F000DBB2013B18BF0123A9E7042805D008282A
:1052000007D0022384F84130A8E7022384F83F3016
:10521000A4E7022384F84030A0E79A6802F007026E
:10522000062A07D01A6842F001021A60002010BD59
:105230000120FCE70020FAE70000014090F83C2044
:10524000012A3DD010B40346012280F83C200222FE
:1052500080F83D2002685068946820F0700C08685F
:1052600040EA0C0050601A68164882421AD0B2F127
:10527000804F17D0A0F57C40824213D000F58060AB
:1052800082420FD000F5806082420BD000F578405A
:10529000824207D000F57050824203D0A0F59430CE
:1052A000824204D124F080044968214391600122A4
:1052B00083F83D20002083F83C005DF8044B7047E4
:1052C0000220704700000140024690F83C30012B5C
:1052D00021D0012380F83C30CB6823F440738868E8
:1052E000034323F480634868034323F4006308689E
:1052F000034323F480530869034323F400534869AC
:10530000034323F48043C9690B4311684B640020B5
:1053100082F83C007047022070477047704702686F
:1053200002F10C0353E8003F23F0C0030C3242E8C3
:1053300000310029F3D1202380F841307047026802
:1053400002F10C0353E8003F23F490730C3242E85F
:1053500000310029F3D1026802F1140353E8003F41
:1053600023F00103143242E800310029F3D1036B2A
:10537000012B05D0202380F84230002303637047BF
:10538000026802F10C0353E8003F23F010030C32D3
:1053900042E800310029F3D1ECE790F84130DBB26C
:1053A000212B01D0022070478368B3F5805F17D0AE
:1053B000036A5A1C02621A7803685A60C38C9BB253
:1053C000013B9BB2C3844BB90268D36823F08003CE
:1053D000D3600268D36843F04003D3600020704775
:1053E0000369002BE4D1036A1B880268C3F3080336
:1053F0005360036A02330362E0E7000010B504461D
:105400000268136923F44053C1680B431361836836
:1054100002691A4343691A43C3691A430168CB6896
:1054200023F4164323F00C031343CB600268536943
:1054300023F4407381690B4353610368314A9342FB
:1054400006D002F58062934202D0FEF755FD01E0DE
:10545000FEF762FDE369B3F5004F29D00021031880
:1054600049411B1841F10001C90041EA5371DB00B9
:10547000181863684FEA83024FEA937341F1000101
:10548000FAF786FE204AA2FB00314909642303FB98
:1054900011031B013233A2FB03235B0903F0F0026B
:1054A00002EB011203F00F03216813448B6010BD5F
:1054B0000023021843EB0301121841F10001C90057
:1054C00041EA5271D200101841F10001626892184D
:1054D0005B41FAF75DFE0C4AA2FB003149096423E7
:1054E00003FB1103DB003233A2FB03235B095A00E9
:1054F00002F4F87202EB011203F00703216813446F
:105500008B60D4E7001001401F85EB5160B310B5EC
:10551000044690F8413013B3242384F841302268C4
:10552000D36823F40053D3602046FFF767FF226857
:10553000136923F4904313612268536923F02A030B
:1055400053612268D36843F40053D3600020606441
:10555000202384F8413084F84230606310BD80F825
:10556000403004F0B3FED7E701207047704708B51C
:105570000168CA6822F04002CA60202280F84120F7
:10558000FFF7F4FF002008BD7047704710B5846B2B
:1055900023685A6994F84130DBB2212B10D023687C
:1055A0005A6902F0400294F84230DBB2222B11D04B
:1055B000636C43F010036364204606F09FFF10BD48
:1055C00002F08002002AEAD00023E3842046FFF79D
:1055D000A6FEE4E7002AEBD00023E3852046FFF790
:1055E000AEFEE5E708B5806B0023C385C38406F0F3
:1055F00085FF08BD90F84230DBB2222B69D1836869
:10560000B3F5805F4FD0826AB3F5805F04D0002B82
:1056100056D10369002B53D103685B681370836A0A
:1056200001338362C38D9BB2013B9BB2C385002BC8
:1056300051D100B583B00268D36823F02003D36052
:105640000268D36823F48073D3600268536923F03F
:1056500001035361202380F8423000234363036B2E
:10566000012B33D100230363026802F10C0353E8DA
:10567000003F23F010030C3242E800310029F3D13F
:1056800003681A6812F0100F06D0002201921A68FF
:1056900001925B680193019B818D06F0F9FE002069
:1056A00003B05DF804FB0269002AACD1826A03688A
:1056B0005B68C3F308031380836A02338362B1E734
:1056C00003685B6803F07F031370A8E7FFF75CFFD4
:1056D000E5E70220704700207047000010B582B057
:1056E000044602681368D068516913F00F0F09D19E
:1056F00013F0200F0CD010F0200F09D02046FFF738
:1057000079FF16E011F0010115D110F4907F12D14C
:10571000216B012979D013F0800F03D010F0800F96
:1057200040F0148113F0400F03D010F0400F40F010
:10573000118102B010BD13F0010F06D010F4807F6C
:1057400003D0626C42F00102626413F0040F04D0D3
:1057500019B1626C42F00202626413F0020F04D0CD
:1057600019B1626C42F00402626413F0080F07D0B2
:1057700010F0200F00D119B1626C42F0080262648F
:10578000626C002AD5D013F0200F02D010F0200F49
:1057900029D123685B6903F04003626C12F0080FA3
:1057A00000D163B32046FFF7CAFD23685B6913F09D
:1057B000400F20D0226802F1140353E8003F23F089
:1057C0004003143242E800310029F3D1E36B73B196
:1057D000624A1A65E06BFBF736FE0028A9D0E06B41
:1057E000036D9847A5E72046FFF704FFD1E7204661
:1057F00006F084FE9DE7204606F080FE99E72046ED
:1058000006F07CFE0023636493E713F0100F82D050
:1058100010F0100F3FF47FAF002301931368019342
:1058200053680193019B536913F0400F52D0E26B10
:1058300013685B689BB2002B3FF47BAFA18D99424C
:105840007FF677AFE385D369B3F5807F37D02268E1
:1058500002F10C0353E8003F23F480730C3242E85A
:1058600000310029F3D1226802F1140353E8003F0C
:1058700023F00103143242E800310029F3D12268F9
:1058800002F1140353E8003F23F04003143242E8CE
:1058900000310029F3D1202384F842300023236310
:1058A000226802F10C0353E8003F23F010030C328E
:1058B00042E800310029F3D1E06BFBF77AFD0223C7
:1058C0006363A18DE38D9BB2C91A89B2204606F0AD
:1058D000DFFD2EE7A18DE38D9BB2C91A89B2E38D5E
:1058E0009BB2002B3FF425AF00293FF422AF226882
:1058F00002F10C0353E8003F23F490730C3242E8AA
:1059000000300028F3D1226802F1140353E8003F6D
:1059100023F00103143242E800300028F3D12023A1
:1059200084F8423000232363226802F10C0353E819
:10593000003F23F010030C3242E800300028F3D17E
:1059400002236363204606F0A3FDF2E62046FFF73C
:1059500024FDEEE62046FFF70AFEEAE6E5550008DC
:1059600008B5806B01234363036B012B02D0FFF763
:105970000CFE08BD818D490806F08AFDF9E708B5DF
:105980000346806B1B681B6813F4807F2BD10023B8
:10599000C385026802F10C0353E8003F23F48073CF
:1059A0000C3242E800310029F3D1026802F11403FD
:1059B00053E8003F23F00103143242E8003100298C
:1059C000F3D1026802F1140353E8003F23F04003CF
:1059D000143242E800310029F3D1202380F842300C
:1059E000036B012B07D000234363036B012B0FD004
:1059F000FFF7CAFD08BD026802F10C0353E8003F3F
:105A000023F010030C3242E800310029F3D1EAE719
:105A1000818D06F03DFDEDE730B583B004461346B9
:105A20008162828500254564222280F84220C26B73
:105A30001F48D063E26B1F481064E26B1E48D064BD
:105A4000E26B156520680A46011DE06BFBF77CFCE4
:105A5000019523681A6801925B680193019B236991
:105A60005BB1226802F10C0353E8003F43F48073FA
:105A70000C3242E800310029F3D1226802F114030C
:105A800053E8003F43F00103143242E8003100299B
:105A9000F3D1226802F1140353E8003F43F04003BE
:105AA000143242E800310029F3D1002003B030BDA8
:105AB0007F590008615900088D55000890F8423060
:105AC000DBB2202B29D110B582B0044639B312B90C
:105AD000012002B010BD0123036300234363FFF7DD
